S02300004B616C6574615F5361646F77736B695F70726F6A656B745F696E7A2E73726563FD
S11300000C943E000C9450000C9450000C9450003E
S11300100C9450000C9450000C9450000C9407065F
S11300200C9494050C9450000C9450000C945000C3
S11300300C9450000C9450000C9450000C945000FC
S11300400C9450000C9450000C9450000C945000EC
S11300500C9450000C9450000C9450000C945000DC
S11300600C9450000C9450000C9450000C945306C3
S11300700C9429060C9450000C94500011241FBEBB
S1130080CFEFCDBFDFE3DEBF28E3A0E0B8E301C0DC
S11300901D92AA35B207E1F70E94D7040C94C0065A
S11300A00C9400009F93EF93FF938F9390E0E1E60D
S11300B0F0E088ED84BF90838F91FF91EF919F9141
S11300C008958095682380910538681789F0809198
S11300D004388F5F80930438843060F0609305386F
S11300E0662319F081E080935938109204380895FA
S11300F01092043808958095682380910338681716
S113010089F0809102388F5F80930238843060F0E8
S113011060930338662319F081E080933838109295
S113012002380895109202380895809568238091CA
S11301300138681789F0809100388F5F8093003808
S1130140843060F060930138662319F081E0809375
S11301501738109200380895109200380895CF93FC
S1130160DF93C0E0D4E02EEF2983A0E2B4E093EF64
S113017011969C931197E0E4F4E088E3818337E0DF
S113018032832D8315969C938583DF91CF910895B7
S11301900F931F9380913C3880FF08C080913A38B8
S11301A0813021F482E08093060403C082E08093CE
S11301B0050480913C3881FF08C080913A38813031
S11301C021F484E08093060403C084E08093050452
S11301D080913C3882FF08C080913A38813021F404
S11301E088E08093060403C088E08093050480912E
S11301F03C3883FF08C080913A38813021F480E193
S11302008093060403C080E18093050480913C3808
S113021084FF08C080913A38813021F480E28093D1
S1130220060403C080E28093050480913C3885FF76
S113023008C080913A38813021F480E48093060428
S113024003C080E48093050480913C3886FF08C095
S113025080913A38813021F480E88093060403C009
S113026080E88093050480913C38882344F480918D
S11302703A38813021F488E08093460403C088E052
S11302808093450480913D3880FF08C080913A38BE
S1130290813021F480E2809346041DC080E2809383
S11302A0450419C080911138882361F005ED10ECE4
S11302B025E130E040E150E861E081E00E94A006E1
S11302C01092113880910E38813029F480E48093A3
S11302D0270410920E3880913D3883FF08C0809126
S11302E03A38813021F480913D3882FFDBCF809110
S11302F03D3882FF10C080913A38813061F480919A
S11303003D3881FD08C080913D3883FD04C080E400
S11303108093260487C080913D3882FD83C08091FC
S11303203A38813009F07EC080913D3881FD7AC031
S113033080913D3883FD76C080E48093250472C0AB
S113034080911138882361F005ED10EC25E130E04F
S113035040E150E861E081E00E94A006109211386B
S1130360E0E0F4E088E7868386E0858380910E38B8
S1130370813009F04EC080913D3884FD08C08091E1
S11303803E3881FD04C081E08093270407C080913A
S11303903E3881FF03C081E08093250480913D387D
S11303A085FD08C080913E3882FD04C082E08093C0
S11303B0270407C080913E3882FF03C082E0809307
S11303C0250480913D38882344F080913E3883FD94
S11303D004C080E18093270407C080913E3883FFE6
S11303E003C080E18093250480913E3880FD08C0DD
S11303F080913E3884FD04C080E28093270407C0C6
S113040080913E3884FF03C080E2809325041092DB
S11304100E3880910F38813029F480E480932704CA
S113042010920F3880913D3881FF08C080913A388E
S1130430813021F480913D3882FF82CF80913D3814
S113044084FF07C080913A38813019F480932604E0
S11304500AC080913E3881FF06C080913A388130CD
S113046011F48093250480913D3885FF08C0809164
S11304703A38813021F482E0809326040BC08091C5
S11304803E3882FF07C080913A38813019F482E007
S11304908093250480913D3886FF07C080913A38C7
S11304A0813019F480E18093260480913D388823BB
S11304B044F480913A38813021F480E18093260419
S11304C00BC080913E3883FF07C080913A38813059
S11304D019F480E18093250480913E3880FF08C0A0
S11304E080913A38813021F480E280932604B8C0A8
S11304F080913E3884FFB4C080913A38813009F04D
S1130500AFC080E280932504ABC08091113888236A
S113051061F005ED10EC25E130E040E150E861E0E8
S113052081E00E94A0061092113880910E3881302B
S113053009F040C080913C3880FD04C080913C3873
S113054082FF04C081E08093270403C081E080938C
S1130550250480913C3881FD04C080913C3883FFA0
S113056004C082E08093270403C082E080932504C2
S113057080913C3882FD04C080913C3883FF03C0E5
S113058080E18093270480913D3884FF06C08091E8
S11305903A38813011F48093260480913D3885FFE8
S11305A007C080913A38813019F482E080932604A0
S11305B010920E3880913838813059F404EF1AE3E0
S11305C020E03FEF41E050E865E00E94A006109271
S11305D03838809117388130A9F480910D38811111
S11305E011C004E01AE320E03FEF42E050E865E088
S11305F081E00E94A00680910D388F5F80930D38B2
S113060010921738809117388130A1F480910D38F9
S1130610813081F405E41AEC20E030E042E050E857
S113062065E00E94A00680910D388F5F80930D389D
S11306301092173880911738813091F480910D38D9
S1130640823071F404E11AE020E030E043E050E845
S113065065E081E00E94A00610920D3810921738D0
S113066080913C3880FD0CC080913C3881FD08C0ED
S113067080913C3882FD04C080913C3883FFC8C01F
S113068080913D3884FD04C080913E3881FF08C0CC
S113069080913D3885FDBCC080913E3882FDB8C054
S11306A080913A38813009F0B3C080913D3883FDA0
S11306B0AFC080913D3881FF28CFAAC08091113806
S11306C0882361F005ED10EC25E130E040E150E8CD
S11306D061E081E00E94A0061092113880913C38BC
S11306E086FF08C080913A38813021F480E88093F5
S11306F0060403C080E88093050480913C38882375
S113070044F480913A38813021F488E0809346049F
S113071003C088E08093450480910E38813011F540
S113072080913C3882FF04C081E08093270403C099
S113073081E08093250480913C3883FF04C082E0EB
S11307408093270403C082E08093250480E1809392
S1130750270480913C3884FF03C080E280932704FF
S113076010920E3880913838813059F404EF1AE32E
S113077020E03FEF41E050E865E00E94A0061092BF
S11307803838809117388130A9F480910D3881115F
S113079011C004E01AE320E03FEF42E050E865E0D6
S11307A081E00E94A00680910D388F5F80930D3800
S11307B010921738809117388130A1F480910D3848
S11307C0813081F405E41AEC20E030E042E050E8A6
S11307D065E00E94A00680910D388F5F80930D38EC
S11307E01092173880911738813091F480910D3828
S11307F0823071F404E11AE020E030E043E050E894
S113080065E081E00E94A00610920D38109217381E
S113081080913C3882FD10C080913C3883FD0CC02F
S113082080913C38882344F080913C3886FD04C094
S113083080913C3884FF9CC080913D3888230CF41F
S113084097C080913E3883FD93C080913D3886FDEA
S11308508FC080913A38813009F08AC080913D3848
S113086083FD86C080913D3881FF28CF81C080916F
S11308701138882361F005ED10EC25E130E040E10A
S113088050E861E081E00E94A00610921138809146
S11308903C3884FD03C080E18093250480910E38A8
S11308A0813081F480913C3884FF04C080E18093DE
S11308B0270403C080E18093250480E28093270409
S11308C010920E3880913838813059F404EF1AE3CD
S11308D020E03FEF41E050E865E00E94A00610925E
S11308E03838809117388130A9F480910D388111FE
S11308F011C004E01AE320E03FEF42E050E865E075
S113090081E00E94A00680910D388F5F80930D389E
S113091010921738809117388130A1F480910D38E6
S1130920813081F405E41AEC20E030E042E050E844
S113093065E00E94A00680910D388F5F80930D388A
S11309401092173880911738813091F480910D38C6
S1130950823071F404E11AE020E030E043E050E832
S113096065E081E00E94A00610920D3810921738BD
S113097080913C3884FD04C080913C3885FF14C0CC
S113098080913E3880FD10C080913E3884FD0CC0BB
S113099080913A38813041F480913D3883FD04C020
S11309A080913D3881FF63CF1F910F9108950E947C
S11309B052000E94AF000E9485060E948D060E948C
S11309C07A06789480915938813071F405EA1AEFE7
S11309D020E03FEF40E050E865E00E94A00681E09F
S11309E080930C381092593880913838813059F4FA
S11309F004EF1AE320E03FEF41E050E865E00E9495
S1130A00A00610923838809117388130A9F480916B
S1130A100D38811111C004E01AE320E03FEF42E0F9
S1130A2050E865E081E00E94A00680910D388F5F58
S1130A3080930D3810921738809117388130A1F4C3
S1130A4080910D38813081F405E41AEC20E030E027
S1130A5042E050E865E00E94A00680910D388F5F67
S1130A6080930D381092173880911738813091F4A3
S1130A7080910D38823071F404E11AE020E030E016
S1130A8043E050E865E081E00E94A00610920D3832
S1130A901092173880910C38813009F093CF8091EF
S1130AA01138882361F005ED10EC25E130E040E1D8
S1130AB050E861E081E00E94A00610921138809114
S1130AC03F38853A09F47ECF809140388A3F09F453
S1130AD079CF80913F38843F09F474CF80914038B6
S1130AE08A3309F46FCF80913F38843009F46ACF98
S1130AF0809140388A3309F465CF80913F3884313E
S1130B0009F460CF809140388A3009F45BCF80913A
S1130B103F38853409F456CF809140388A3C09F433
S1130B2051CF0E94C8004ECF1F920F920FB60F9262
S1130B3011242F933F934F935F936F937F938F93DE
S1130B409F93AF93BF93CF93DF93EF93FF938091E2
S1130B5007388F5F809307388C30E1F4C0E4D4E029
S1130B604889888550E061E070E090E00E9461006F
S1130B704989888550E062E070E090E00E947B0043
S1130B804A89888550E064E070E090E00E94950016
S1130B901092073820910A3830910B382F5F3F4F5D
S1130BA020930A3830930B38809108389091093893
S1130BB001968093083890930938283C310539F41C
S1130BC021E020930F3810920A3810920B38843F9A
S1130BD0914039F481E080930E38109208381092D5
S1130BE0093881E080930B0AFF91EF91DF91CF9157
S1130BF0BF91AF919F918F917F916F915F914F9131
S1130C003F912F910F900FBE0F901F9018951F9238
S1130C100F920FB60F9211248F939F9381E08093CC
S1130C205301809106388F5F80930638813019F420
S1130C3091E090931138823029F481E08093103848
S1130C40109206389F918F910F900FBE0F901F90B6
S1130C5018951F920F920FB60F9211248F939F93A2
S1130C60EF93FF939091153880911438981768F496
S1130C70E091153881E08E0F80931538F0E0E85E3E
S1130C80F74C80818093020805C0E0E0F8E085819C
S1130C908F7D8583FF91EF919F918F910F900FBE70
S1130CA00F901F9018951F920F920FB60F92112458
S1130CB08F939F93EF93FF93E091163881E08E0F0B
S1130CC080931638F0E080910008E75CF74C80834D
S1130CD09091163880911338981303C081E0809363
S1130CE01238FF91EF919F918F910F900FBE0F904B
S1130CF01F901895E0E0FAE082EE94E086A397A3B3
S1130D0089E0808381E082870895E0E4F1E017823E
S1130D1081E0828B89E6808B0895E0E2F4E088E04C
S1130D20828384E08183E0E0F8E08DE890E28087CC
S1130D30918780E8858380EC868383E087830895A8
S1130D400F931F93E8E1F8E3808361835283438325
S1130D50348325830683178381E08093153888E0E4
S1130D608093143880931338109216388081E0E011
S1130D70F8E082838581806285831F910F910895B5
S1070D80F894FFCF11
S9030000FC
